:0400000007EF00F016
:0A00080070824CED11F0C1EF12F010
:10100000003738392F3435362A3132332D23303DED
:101010002B5761697420756E74696C205468652063
:10102000446F6F720057656C636F6D6520746F203D
:10103000536D6172740057616974203230205365BA
:10104000636F6E6473004F70656E20416E64204361
:101050006C6F73650053657420546865205061732C
:10106000733A004C6F67696E20426C6F636B656406
:10107000004C6F67696E20466F72205468650043AC
:101080006F7272656374205061737300446F6F7286
:101090002053797374656D0057726F6E6720496EC7
:1010A000707574005468652050617373203A005065
:1010B00061737320536176656400466972737420AE
:1010C00054696D650057726F6E67205061737300CD
:1010D0005472696573204C656674005365742050C2
:0910E00061737320002569000012
:1010EA000F0EC1122B0E516E000E526E8FEC0FF0C6
:1010FA00390E556E000E566EF0EC0CF03F0E516E26
:10110A00000E526EA5EC12F0390E556E000E566E98
:10111A00250E576E100E586E21EC11F0390E556ED1
:10112A00000E566E020E576E030E586E04EC0EF049
:10113A00390E556E000E566E8C0E576E100E586E86
:10114A0021EC11F0070E4B6ED00E4A6E77EC11F0BF
:10115A00390E516E000E526E010E536E04EC10F0F1
:10116A00000E486E050E476E05EC13F00009D8B460
:10117A00C1EF08F0C3EF08F0A0EF09F0390E516E85
:10118A00000E526E010E536E04EC10F0390E556EBD
:10119A00000E566E710E576E100E586E21EC11F03D
:1011AA00390E556E000E566E020E576E030E586EAD
:1011BA0004EC0EF0390E556E000E566EBA0E576ECE
:1011CA00100E586E21EC11F0070E4B6ED00E4A6EBF
:1011DA0077EC11F0390E516E000E526E010E536EFD
:1011EA0004EC10F0390E556E000E566EDB0E576E7B
:1011FA00100E586E21EC11F0390E556E000E566E17
:10120A00020E576E010E586E04EC0EF0390E556E32
:10121A00000E566EA40E576E100E586E21EC11F089
:10122A00000E00018C6F27C080F028C081F029C011
:10123A0082F02AC083F06AEF09F08E692FEF09F075
:10124A002B0E4D6E000E4E6E8E0E4F6E000E506EB1
:10125A0080EC0DF000018E29D8B436EF09F038EF92
:10126A0009F025EF09F0800E8C25D96EDA6A000E96
:10127A00DA228EC0DFFF390E516E000E526E8EC01A
:10128A0053F0CBEC0FF0010E4B6E2C0E4A6E77EC3E
:10129A0011F0390E556E000E566E020E576E000191
:1012AA008C510B0F586E04EC0EF0390E516E000E75
:1012BA00526E2A0E536ECBEC0FF0000E4B6E320EAE
:1012CA004A6E77EC11F000018C2B030E8C6570EFDF
:1012DA0009F072EF09F022EF09F0000E486E000ED5
:1012EA00476E800E496E000E4A6E040E4B6E6EEC0F
:1012FA0010F0000E446E050E436E000E456EC8ECEB
:10130A0011F0390E516E000E526E010E536E04EC3E
:10131A0010F0390E556E000E566EAF0E576E100E47
:10132A00586E21EC11F0030E4B6EE80E4A6E77EC04
:10133A0011F0BBEF09F0000E486E060E476E05EC81
:10134A0013F06F6E390E516E000E526E010E536E0F
:10135A0004EC10F0390E556E000E566E550E576E8F
:10136A00100E586E21EC11F0BBEF09F0000E0001CF
:10137A008D6F23C084F024C085F025C086F026C076
:10138A0087F01FC088F020C089F021C08AF022C0EF
:10139A008BF06F04D8A4D4EF09F0D6EF09F0A9EFC7
:1013AA000AF0390E516E000E526E010E536E04ECA5
:1013BA0010F0390E556E000E566E630E576E100EF3
:1013CA00586E21EC11F0390E556E000E566E020E53
:1013DA00576E010E586E04EC0EF0390E556E000E63
:1013EA00566E360E576E100E586E21EC11F04E0ED8
:1013FA004B6E200E4A6E77EC11F0390E516E000ECC
:10140A00526E010E536E04EC10F0390E556E000E3A
:10141A00566E550E576E100E586E21EC11F0000ED6
:10142A006E6E000E6F6E000E446E060E436E000E58
:10143A00456EC8EC11F0A9EF0AF08E692FEF0AF099
:10144A002B0E4D6E000E4E6E8E0E4F6E000E506EAF
:10145A0080EC0DF000018E29D8B436EF0AF038EF8F
:10146A000AF025EF0AF02F0E8E653EEF0AF040EFE4
:10147A000AF048EF0AF0390E8E6546EF0AF048EF97
:10148A000AF077EF0AF0390E516E000E526E010E15
:10149A00536E04EC10F0390E556E000E566E980E0F
:1014AA00576E100E586E21EC11F0030E4B6EE80EBB
:1014BA004A6E77EC11F0390E516E000E526E010E23
:1014CA00536E04EC10F0390E556E000E566E550E22
:1014DA00576E100E586E21EC11F0000E00018D6F40
:1014EA00A9EF0AF0840E8D25D96EDA6A000EDA2287
:1014FA008EC0DFFF390E516E000E526E8EC053F051
:10150A00CBEC0FF0010E4B6E2C0E4A6E77EC11F0FD
:10151A00390E556E000E566E010E576E00018D5132
:10152A000E0F586E04EC0EF0390E516E000E526E0C
:10153A002A0E536ECBEC0FF0000E4B6E640E4A6E01
:10154A0077EC11F000018D2B030E00018D65B0EFD1
:10155A000AF0B2EF0AF022EF0AF0000E486E000E0F
:10156A00476E880E496E000E4A6E040E4B6E9DEC55
:10157A0010F0880E436E000E446E840E456E000E07
:10158A00466E040E476EF6EC10F0E806D8A4D0EFCB
:10159A000AF0D2EF0AF046EF0BF0000E6E6E390E2B
:1015AA00516E000E526E010E536E04EC10F0390E9D
:1015BA00556E000E566E7F0E576E100E586E21EC49
:1015CA0011F0030E4B6EE80E4A6E77EC11F0390EED
:1015DA00556E000E566E020E576E010E586E04ECD2
:1015EA000EF0390E556E000E566E110E576E100E15
:1015FA00586E21EC11F0390E556E000E566E030E20
:10160A00576E010E586E04EC0EF0390E556E000E30
:10161A00566E460E576E100E586E21EC11F03F0EA4
:10162A004D6E000E4E6E2AEC12F0130E4B6E880EA3
:10163A004A6E77EC11F03F0E4D6E000E4E6E4AEC7C
:10164A0012F0130E4B6E880E4A6E77EC11F03F0EB5
:10165A004D6E000E4E6E0AEC12F0390E516E000EEF
:10166A00526E010E536E04EC10F0390E556E000ED8
:10167A00566E550E576E100E586E21EC11F0BBEFD8
:10168A0009F0880E436E000E446E840E456E000EFD
:10169A00466E040E476EF6EC10F00009D8A458EF17
:1016AA000BF05AEF0BF0BBEF09F06E2A390E516EB0
:1016BA00000E526E010E536E04EC10F0390E556E88
:1016CA00000E566EC50E576E100E586E21EC11F0B4
:1016DA00390E556E000E566E020E576E010E586E7A
:1016EA0004EC0EF0390E556E000E566ED00E576E83
:1016FA00100E586E21EC11F0390E516E000E526E1A
:10170A006E503308536ECBEC0FF0030E4B6EE80E9F
:10171A004A6E77EC11F0390E516E000E526E010EC0
:10172A00536E04EC10F0390E556E000E566E550EBF
:10173A00576E100E586E21EC11F0020E6E64A8EF6F
:10174A000BF0AAEF0BF0BBEF09F0000E446E060E89
:10175A00436E010E456EC8EC11F0010E6F6EBBEFC1
:10176A0009F007EF00F0010E4B6E43504410D8B455
:10177A00C1EF0BF0C3EF0BF0D4EF0BF043C0D9FF6E
:10178A0044C0DAFFDF30E832E832070B456E070E55
:10179A004564D2EF0BF0D4EF0BF037EF0CF0000EEC
:1017AA004B6E58EF0CF043C0D9FF44C0DAFFDF306C
:1017BA00E832E832070B456E010E466E452AE8EF1D
:1017CA000BF0D8904636452EE6EF0BF04650FF0A4E
:1017DA00476E43C0D9FF44C0DAFFDF50070B486E9B
:1017EA004850020D150EF324D96E000EF420DA6E5D
:1017FA00DECF49F0DDCF4AF049C0D9FF4AC0DAFF4F
:10180A004750DF1658EF0CF043C0D9FF44C0DAFF47
:10181A00DF30E832E832070B456E010E466E452A84
:10182A0019EF0CF0D8904636452E17EF0CF043C04E
:10183A00D9FF44C0DAFFDF50070B476E4750020D4D
:10184A00150EF324D96E000EF420DA6EDECF48F0BE
:10185A00DDCF49F048C0D9FF49C0DAFF4650DF1250
:10186A0058EF0CF043C0D9FF44C0DAFFDFBC40EFA9
:10187A000CF043EF0CF0010E44EF0CF0000E456E35
:10188A00466A4650000AD8B44DEF0CF0D4EF0BF07C
:10189A004550000AD8B4D8EF0BF0010AD8B409EFC2
:1018AA000CF0D4EF0BF04B501200010E4C6E43506B
:1018BA004410D8B463EF0CF065EF0CF076EF0CF03F
:1018CA0043C0D9FF44C0DAFFDF30E832E832070B01
:1018DA00466E070E466474EF0CF076EF0CF0D9EF03
:1018EA000CF0000E4C6ED9EF0CF043C0D9FF44C087
:1018FA00DAFFDF30E832E832070B466E010E476E38
:10190A00462A8AEF0CF0D8904736462E88EF0CF01C
:10191A004750FF0A486E43C0D9FF44C0DAFFDF5080
:10192A00070B496E4950020D0B0EF324D96E000EB7
:10193A00F420DA6EDECF4AF0DDCF4BF04AC0D9FF91
:10194A004BC0DAFF4850DF16EEEF0CF043C0D9FF68
:10195A0044C0DAFFDF30E832E832070B466E010E88
:10196A00476E462ABBEF0CF0D8904736462EB9EFA1
:10197A000CF043C0D9FF44C0DAFFDF50070B486EB2
:10198A004850020D0B0EF324D96E000EF420DA6EC5
:10199A00DECF49F0DDCF4AF049C0D9FF4AC0DAFFAD
:1019AA004750DF12EEEF0CF04550466E476A47503B
:1019BA00000AD8B4E3EF0CF0EEEF0CF04650000A40
:1019CA00D8B47AEF0CF0010AD8B4ABEF0CF0EEEF12
:1019DA000CF04C501200000E596E55505610D8A4F7
:1019EA00F9EF0CF0FBEF0CF0FDEF0CF07FEF0DF0D0
:1019FA0055C04DF056C04EF03DEC10F05A6E010E37
:101A0A0055244D6E000E56204E6E3DEC10F05A6E67
:101A1A00000E596E59505524576E000E5620586EB6
:101A2A00020E57244D6E000E58204E6E3DEC10F0FB
:101A3A00592A030E596424EF0DF026EF0DF00FEF2B
:101A4A000DF0340E576EF20EE82EFED7572EFCD745
:101A5A0055C051F056C052F0380E536E04EC10F0D7
:101A6A000D0E576EFC0EE82EFED7572EFCD755C02A
:101A7A0051F056C052F0380E536E04EC10F0640E5A
:101A8A00E82EFED755C051F056C052F0380E536EAC
:101A9A0004EC10F055C051F056C052F0010E536ECE
:101AAA0004EC10F055C051F056C052F0020E536EBD
:101ABA0004EC10F055C051F056C052F0060E536EA9
:101ACA0004EC10F055C051F056C052F00E0E536E91
:101ADA0004EC10F055C051F056C052F0280E536E67
:101AEA0004EC10F055C051F056C052F0800E536EFF
:101AFA0004EC10F01200000E556E000E566E000E29
:101B0A00546E000E536E4D504E10D8B48FEF0DF038
:101B1A0091EF0DF09AEF0DF04F505010D8A498EFB6
:101B2A000DF09AEF0DF09CEF0DF003EF0EF0000EA2
:101B3A00556E000E546E54504D24436E000E4E20C6
:101B4A00446E000E456E5AEC0CF0542A030E54648F
:101B5A00B1EF0DF0B3EF0DF0A0EF0DF055504D249D
:101B6A00436E000E4E20446E010E456E5AEC0CF088
:101B7A00000E566E56504D24516E000E4E20526E77
:101B8A00040E5124436E000E5220446E530E456ECD
:101B9A00000E466E63EC0EF05304D8A4D7EF0DF096
:101BAA00D9EF0DF0F1EF0DF05550040D010EF324AD
:101BBA00516E100EF420526E56505126000E5222CB
:101BCA0051C0F6FF52C0F7FFF86A4FC0D9FF50C0A4
:101BDA00DAFF0800F5CFDFFF562A030E5664F8EF46
:101BEA000DF0FAEF0DF0BFEF0DF0552A030E556414
:101BFA0001EF0EF003EF0EF09EEF0DF01200010E52
:101C0A005B6E580655505610D8A40EEF0EF010EF22
:101C1A000EF044EF0EF0000E5B6E61EF0EF055C051
:101C2A0051F056C052F05850800F536E04EC10F029
:101C3A005B6E61EF0EF055C051F056C052F058502D
:101C4A00C00F536E04EC10F05B6E61EF0EF055C0DE
:101C5A0051F056C052F05850940F536E04EC10F0E5
:101C6A005B6E61EF0EF055C051F056C052F05850FD
:101C7A00D40F536E04EC10F05B6E61EF0EF0575008
:101C8A00596E5A6A5A50000AD8B44EEF0EF061EFF4
:101C9A000EF05950010AD8B414EF0EF0030AD8B462
:101CAA0020EF0EF0010AD8B42CEF0EF0070AD8B4D0
:101CBA0038EF0EF061EF0EF05B501200010E4C6E21
:101CCA0043504410D8B46CEF0EF06EEF0EF088EF6C
:101CDA000EF045504610D8B475EF0EF077EF0EF0BF
:101CEA0088EF0EF043C0D9FF44C0DAFFDF30E83294
:101CFA00E832070B476E070E476486EF0EF088EF4F
:101D0A000EF08CEF0EF0000E4C6EBDEF0EF043C0DD
:101D1A00D9FF44C0DAFFDF30E832E832070B476EFA
:101D2A0043C0D9FF44C0DAFFDF50070B486E485062
:101D3A00020D010EF324D96E000EF420DA6EDECF06
:101D4A0049F0DDCF4AF049C0D9FF4AC0DAFFDF5077
:101D5A004B6E472AB3EF0EF0D8904B32472EB1EFB5
:101D6A000EF04B50010B45C0D9FF46C0DAFFDF6EBB
:101D7A004C50120046504710D8A4C6EF0EF0C8EFD8
:101D8A000EF0CAEF0EF00BEF0FF0D59E46C043F0EF
:101D9A0047C044F0CAEC10F046C043F047C044F0D4
:101DAA006AEC12F046C043F047C044F050EC0FF022
:101DBA0020EE03F04650D9264750DA22DECF48F00B
:101DCA00DDCF49F049C048F0496A4850D76E20EE45
:101DDA0003F04650D9264750DA22DF50D66E20EE5D
:101DEA0003F04650D9264750DA22DECF66F0DDCF1F
:101DFA0067F0F28AF294F28EF28C46C0D9FF47C09D
:101E0A00DAFFDECF68F0DDCF69F0D58E12004D50D3
:101E1A004E10D8A413EF0FF015EF0FF019EF0FF0D3
:101E2A00000E506E4EEF0FF0020E4D24436E000E60
:101E3A004E20446E4F50010B456E5AEC0CF0506E1A
:101E4A00030E4D24436E000E4E20446ED8904F3040
:101E5A00010B456E5AEC0CF0506E040E4D24436E85
:101E6A00000E4E20446E4F40E8423F0B010B456E78
:101E7A005AEC0CF0506E050E4D24436E000E4E20A7
:101E8A00446E4F38E8461F0B010B456E5AEC0CF0B6
:101E9A00506E5050120020EE05F04350D92644509F
:101EAA00DA22DFA25BEF0FF05DEF0FF060EF0FF0C9
:101EBA00D59A8EEF0FF020EE05F04350D926445004
:101ECA00DA22DFB26BEF0FF06DEF0FF08EEF0FF04B
:101EDA00D58A20EE05F04350D9264450DA22DFA4F1
:101EEA0079EF0FF07BEF0FF07EEF0FF0D5988EEFC2
:101EFA000FF020EE05F04350D9264450DA22DFB421
:101F0A0089EF0FF08BEF0FF08EEF0FF0D5888EEF81
:101F1A000FF01200000E556E000E566E5150521000
:101F2A00D8A49AEF0FF09CEF0FF09EEF0FF0CAEFD4
:101F3A000FF0000E556E555051244D6E000E522072
:101F4A004E6E3DEC10F0552A030E5564AFEF0FF0BC
:101F5A00B1EF0FF0A0EF0FF0000E566E565051245D
:101F6A00536E000E5220546E040E5324436E000E1C
:101F7A005420446EB8EC0BF0562A030E5664C8EF90
:101F8A000FF0CAEF0FF0B3EF0FF0120051505210DA
:101F9A00D8A4D2EF0FF0D4EF0FF0D8EF0FF0000E65
:101FAA00546E02EF10F051C043F052C044F0010EDB
:101FBA00456E5AEC0CF0546E51C04DF052C04EF0C2
:101FCA0053380F0B4F6E0CEC0FF0546E51C04DF09E
:101FDA0052C04EF0A0EC11F0546E51C04DF052C0F8
:101FEA004EF053C04FF00CEC0FF0546E51C04DF050
:101FFA0052C04EF0A0EC11F0546E545012005150E1
:10200A005210D8A40BEF10F00DEF10F011EF10F0F2
:10201A00000E546E3BEF10F051C043F052C044F032
:10202A00000E456E5AEC0CF0546E51C04DF052C081
:10203A004EF053380F0B4F6E0CEC0FF0546E51C02C
:10204A004DF052C04EF0A0EC11F0546E51C04DF05C
:10205A0052C04EF053C04FF00CEC0FF0546E51C00A
:10206A004DF052C04EF0A0EC11F0546E54501200D4
:10207A004D504E10D8B444EF10F046EF10F057EF21
:10208A0010F04DC0D9FF4EC0DAFFDF30E832E83237
:10209A00070B4F6E070E4F6455EF10F057EF10F015
:1020AA0057EF10F04DC043F04EC044F0B8EC0BF0BF
:1020BA004DC043F04EC044F04DC0D9FF4EC0DAFFC8
:1020CA00000EDFBE010E456E5AEC0CF0506E5050F9
:1020DA001200000E506E000E4F6E000E506E000E73
:1020EA004F6E8AEF10F047504F24436E48505020ED
:1020FA00446E4F504924D96E50504A20DA6EDF5050
:10210A00456EC8EC11F04F4A502A4B504C6E4D6A3E
:10211A004C504F5C5050800A4E6E4D50800A4E58BB
:10212A00D8A09AEF10F09CEF10F078EF10F01200A0
:10213A00000E506E000E4F6E000E506E000E4F6E67
:10214A00B7EF10F047504F24436E48505020446E6A
:10215A004F504924456E50504A20466E89EC12F081
:10216A004F4A502A4B504C6E4D6A4C504F5C50505F
:10217A00800A4E6E4D50800A4E58D8A0C7EF10F014
:10218A00C9EF10F0A7EF10F0120020EE05F043504F
:10219A00D9264450DA22DFA6D5EF10F0D7EF10F097
:1021AA00E7EF10F0D59620EE02F04350D9264450BE
:1021BA00DA22DF50456ED5504518F80B4518D56E12
:1021CA00F5EF10F020EE05F04350D9264450DA22FC
:1021DA00DFB6F2EF10F0F4EF10F0F5EF10F0D5865D
:1021EA001200000E4B6E010E4A6E16EF11F04B50A4
:1021FA004524D96E000E4620DA6E4B504324E16E18
:10220A00000E4420E26EDE50E618D8B40FEF11F04B
:10221A0011EF11F015EF11F0000E4A6E1FEF11F0D9
:10222A004B2A47504B5CD8A01DEF11F01FEF11F05D
:10223A00FCEF10F04A50120055505610D8A428EF5F
:10224A0011F02AEF11F03CEF11F04BEF11F055C0ED
:10225A0051F056C052F057C0F6FF58C0F7FFF86A5F
:10226A000800F5CF53F0CBEC0FF0574A582A57C065
:10227A00F6FF58C0F7FFF86A0800F5500009D8A41D
:10228A0049EF11F04BEF11F02CEF11F0120006009C
:10229A00FACF41F0FBCF42F0F2AA56EF11F058EF15
:1022AA0011F061EF11F0F2A45DEF11F05FEF11F0A0
:1022BA0061EF11F0DCEC12F09DA066EF11F068EF0F
:1022CA0011F071EF11F09EA06DEF11F06FEF11F0A8
:1022DA0071EF11F011EC13F042C0FBFF41C0FAFF9D
:1022EA0070921100330E466E000E476EBFEC0EF070
:1022FA004A506A1807E14B506B18D8A487EF11F0BF
:10230A0089EF11F07DEF11F04A506A1807E14B503E
:10231A006B18D8A493EF11F095EF11F099EF11F023
:10232A00000E6B6E000E6A6E330E436E000E446E24
:10233A00F7EC12F012004D504E10D8A4A7EF11F08E
:10234A00A9EF11F0ADEF11F0000E4F6EC6EF11F0CC
:10235A00010E4D24436E000E4E20446E010E456E52
:10236A005AEC0CF0030EE82EFED700F0010E4D24B5
:10237A00436E000E4E20446E000E456E5AEC0CF071
:10238A004F6E4F501200000EF2BE010E466E4450C0
:10239A00030BAA6E43C0A9FF45C0A8FFA69EA69C30
:1023AA00A684F29E550EA76EAA0EA76EA682A6B2A4
:1023BA00E1EF11F0E3EF11F0DCEF11F0A69446B073
:1023CA0002D0F29E01D0F28E1200800F810F820F8E
:1023DA00830F840F890F8A0F8B0F8C0F8D0F920F2B
:1023EA00930F940F950F960FFFFFFFFFFFFFFFFF5D
:1023FA00FFFFFFFF00081018606870782E26009C07
:10240A00FF0A020A121A222A030B4D504E10D8A4B0
:10241A0011EF12F013EF12F015EF12F029EF12F08C
:10242A004DC043F04EC044F0000E456E5AEC0CF01D
:10243A004F6E010E4D24436E000E4E20446E000E68
:10244A00456E5AEC0CF04F6E12004D504E10D8A447
:10245A0031EF12F033EF12F035EF12F049EF12F0CC
:10246A004DC043F04EC044F0010E456E5AEC0CF0DC
:10247A004F6E010E4D24436E000E4E20446E000E28
:10248A00456E5AEC0CF04F6E12004D504E10D8A407
:10249A0051EF12F053EF12F055EF12F069EF12F00C
:1024AA004DC043F04EC044F0000E456E5AEC0CF09D
:1024BA004F6E010E4D24436E000E4E20446E010EE7
:1024CA00456E5AEC0CF04F6E120020EE05F04350A8
:1024DA00D9264450DA22DFA075EF12F077EF12F016
:1024EA007AEF12F0D58C88EF12F020EE05F0435007
:1024FA00D9264450DA22DFB085EF12F087EF12F0C6
:10250A0088EF12F0D59C120045504610D8A490EFDF
:10251A0012F092EF12F094EF12F0A4EF12F044507E
:10252A00030BAA6E43C0A9FFA69EA69CA68000F034
:10253A0000F045C0D9FF46C0DAFFA8CFDFFF12007E
:10254A0051505210D8A4ACEF12F0AEEF12F0B0EF27
:10255A0012F0C0EF12F051C04DF052C04EF03DECF7
:10256A0010F0536E010E51244D6E000E52204E6E25
:10257A003DEC10F0536E1200D40EF66E230EF76E79
:10258A00000EF86E00EE01F010EE40F00900F5CFF3
:10259A00EEFFE550E150FAE100EE5CF0140EEE6A4F
:1025AA00E806FDE170907092000175EF08F0F29470
:1025BA006750D76E66C0D6FF68506910D8B4E8EF86
:1025CA0012F0EAEF12F0F6EF12F002D8F6EF12F07C
:1025DA000500FA6E6850FD6E6950FE6EFF6AFA5089
:1025EA001200120043504410D8A4FEEF12F000EF7C
:1025FA0013F002EF13F004EF13F0D59EF29A1200D3
:10260A0047C043F048C044F0490E456E000E466E7E
:10261A0089EC12F0495012009E906350CF6E62C04E
:0A262A00CEFF12006A4A6B2A12006C
:020000040020DA
:08000000FFFFFFFFFFFFFFFF00
:020000040030CA
:0E000000FF080912FF8181FF0FC00FE00F40C3
:00000001FF
